:100000000C943E000C945B000C945B000C945B0021
:100010000C945B000C945B000C945B000C945B00F4
:100020000C945B000C945B000C945B000C945D00E2
:100030000C945B000C945B000C949E000C945B0091
:100040000C945B000C945B000C945B000C945B00C4
:100050000C945B000C945B000C945B000C945B00B4
:100060000C945B000C945B00AE01B101B401B701CC
:10007000BA01BD01C001C301C601C90111241FBEDF
:10008000CFEFD8E0DEBFCDBF11E0A0E0B1E0E0E609
:10009000F4E002C005900D92A630B107D9F721E037
:1000A000A6E0B1E001C01D92A730B207E1F70E94BF
:1000B000E4010C942E020C9400001F920F920FB6D4
:1000C0000F9211242F934F935F936F937F938F938E
:1000D0009F93AF93BF9388EE93E0A0E0B0E08436A7
:1000E0009105A105B105E0F0AC01BD0144565109EF
:1000F00061097109443651056105710588F0885C14
:100100009109A109B10922E023B922E22A95F1F768
:10011000000024E023B922E22A95F1F70000DFCFA6
:10012000BF91AF919F918F917F916F915F914F910F
:100130002F910F900FBE0F901F9018951F920F9246
:100140000FB60F9211242F933F934F935F936F93AA
:100150007F938F939F93AF93BF931C9956C08091C9
:100160000101909102018130910561F48BE291E0EF
:10017000909302018093010189E0809306018093AE
:1001800000012BC02091060121110FC03091000108
:1001900031110BC029E02093060120930001019743
:1001A000909302018093010118C021110EC029E033
:1001B0002093060120910001215020930001019716
:1001C000909302018093010108C021502093060101
:1001D0000197909302018093010110928500109283
:1001E000840020910301309104014CE3429FC0013F
:1001F000439F900D112460910101709102010E94B2
:10020000140270938900609388001D9954C08091F6
:100210000101909102018B3221E0920759F481E0B3
:1002200090E0909302018093010180930601109267
:10023000000129C020910601293071F4309100019C
:10024000393051F4109206011092000101969093FA
:1002500002018093010117C0293069F41092060150
:10026000209100012F5F20930001019690930201DD
:100270008093010108C02F5F20930601019690939F
:100280000201809301011092850010928400209158
:100290000301309104014CE3429FC001439F900D44
:1002A000112460910101709102010E941402709367
:1002B000890060938800BF91AF919F918F917F914A
:1002C0006F915F914F913F912F910F900FBE0F90C3
:1002D0001F90189584B1866384B985B1806385B910
:1002E00083E087B986B98FEF8AB9109280008DE0DC
:1002F0008093810020910301309104014CE3429FDF
:10030000C001439F900D1124609101017091020181
:100310000E941402709389006093880082E08093A9
:100320006F0084BD95E095BD94E697BD80936E0007
:1003300078940895009721F428B1216028B906C067
:100340008130910519F428B1226028B96A3071050D
:1003500010F5FB01EC5CFF4F0C94280220EC2BB94C
:100360001AC029EF2BB917C024EA2BB914C020EB0F
:100370002BB911C029E92BB90EC022E92BB90BC04A
:1003800022E82BB908C028EF2BB905C020E82BB90B
:1003900002C020E92BB9009751F42091010130915E
:1003A0000201283C310518F02BB12F772BB90197AA
:1003B00051F480910101909102018436910518F069
:1003C0008BB18F778BB908950E946A0120E030E0ED
:1003D000232B69F488B18D7F88B96091000170E0AA
:1003E00080E090E00E949A0121E030E00CC088B1EA
:1003F0008E7F88B96091060170E081E090E00E94F4
:100400009A0120E030E083E08A95F1F700C08FEF99
:100410008BB988B18E7F88B988B18D7F88B98AE021
:100420008A95F1F70000D4CFAA1BBB1B51E107C08E
:10043000AA1FBB1FA617B70710F0A61BB70B881F74
:10044000991F5A95A9F780959095BC01CD01089503
:10045000EE0FFF1F0590F491E02D0994F894FFCF63
:06046000063C00E8030069
:00000001FF
