:100000000C943E000C945B000C945B000C945B0021
:100010000C945B000C945B000C945B000C945B00F4
:100020000C945B000C945B000C945B000C945D00E2
:100030000C945B000C945B000C9496000C945B0099
:100040000C945B000C945B000C945B000C945B00C4
:100050000C945B000C945B000C945B000C945B00B4
:100060000C945B000C945B008101A001A201A4012F
:10007000A601A801AA01AC01AE01B00111241FBE66
:10008000CFEFD8E0DEBFCDBF11E0A0E0B1E0EEEEF3
:10009000F3E002C005900D92A630B107D9F721E038
:1000A000A6E0B1E001C01D92A730B207E1F70E94BF
:1000B000B3010C94F5010C9400001F920F920FB63F
:1000C0000F9211242F933F934F938F939F93AF934E
:1000D000BF93429A84E893E0A0E0B0E032E024E0ED
:1000E00033B942E24A95F1F7000023B942E24A955A
:1000F000F1F70000885C9109A109B1098C394FEF33
:100100009407A407B40729F084369105A105B10529
:1001100038F74298BF91AF919F918F914F913F9146
:100120002F910F900FBE0F901F9018951F920F9256
:100130000FB60F9211242F933F934F935F936F93BA
:100140007F938F939F93AF93BF931C9946C08091E9
:100150000101909102018130910561F48BE291E0FF
:10016000909302018093010189E0809306018093BE
:1001700000011BC020910601019721110FC02091A1
:100180000001211104C029E02093060104C039E0D8
:100190003093060121502093000103C02150209389
:1001A0000601909302018093010110928500109244
:1001B000840020910301309104014CE3429FC0016F
:1001C000439F900D112460910101709102010E94E2
:1001D000DB0170938900609388001D9944C0809171
:1001E0000101909102018B3221E0920759F481E0E4
:1001F00090E0909302018093010180930601109298
:10020000000119C0209106010196293069F420915E
:10021000000110920601293019F41092000107C064
:100220002F5F2093000103C02F5F2093060190935E
:1002300002018093010110928500109284002091A8
:100240000301309104014CE3429FC001439F900D94
:10025000112460910101709102010E94DB017093F1
:10026000890060938800BF91AF919F918F917F919A
:100270006F915F914F913F912F910F900FBE0F9013
:100280001F90189584B1866384B985B1806385B960
:1002900083E087B986B98FEF8AB9109280008DE02C
:1002A0008093810020910301309104014CE3429F2F
:1002B000C001439F900D11246091010170910201D2
:1002C0000E94DB01709389006093880082E0809334
:1002D0006F0084BD95E095BD98E797BD80936E0053
:1002E00078940895009729F4409A6A30710568F46B
:1002F00022C081309105E1F4419A6A30710578F4A9
:100300001AC020EC2BB9009741F480910101909123
:100310000201883C910530F109C0019719F58091DF
:1003200001019091020184369105E0F05F980895F3
:100330006A307105B8F4FB01EC5CFF4F0C94EF01DF
:1003400029EFE0CF24EADECF20EBDCCF29E9DACFBA
:1003500022E9D8CF22E8D6CF28EFD4CF20E8D2CFD9
:1003600020E9D0CF08950E94420180E090E0CFEFD5
:10037000892B59F441986091000170E080E090E091
:100380000E94720181E090E00AC0409860910601ED
:1003900070E081E090E00E94720180E090E023E054
:1003A0002A95F1F700C0CBB9409841982AE02A95E8
:1003B000F1F70000DDCFAA1BBB1B51E107C0AA1F4C
:1003C000BB1FA617B70710F0A61BB70B881F991FF6
:1003D0005A95A9F780959095BC01CD010895EE0F2F
:0E03E000FF1F0590F491E02D0994F894FFCFD3
:0603EE00063C00E80300DC
:00000001FF
